:400000000080002011000000DD100000DD10000008B5044B1A6803F53F5302331A6001F065F800BFFA46004010B5054C237833B9044B13B10448AFF300800123237010BD3F
:400040007881FF1F0000000024320000084B10B51BB108490848AFF300800848036803B910BD074B002BFBD0BDE81040184700BF000000007C81FF1F24320000C880FF1FF6
:400080000000000070B582B062B601F0E1F802F013F902F053F8002002F01EF9002002F05DF801F0EFFB02F037F802F0A3F801F0A9FA01F025FC01F04DFFA64801F0A2FF50
:4000C000A54801F0C7FFA54801F068FCA44B0A221A70FF22DA7001F0A9FAA24B1B78012B27D100229F4B1A709F4800F06DFC9F4B1B78012B12D100229C4B1A7002889C4B6C
:400100001A80428851429B4B198003881A449A4B83FB0213A3EBE273984A1380984B1B78012B06D10022964B1A7003885B42954A1380954B1B78012B27D10024934B1C70CB
:40014000914B1C7002F0A2F8914B1C80914A1470874A128802F5FA628F490A808F4A14705C609C608E4A8F4B1A608F4B1C6041F288328E4B1A608E4B1C608E4B1C808E4B1A
:400180001C808E4B1C808E4B1C808E4B1B78012B09D100228B4B1A707148FF2343708370042101F0CDFB884B1B78012B08D10022854B1A7001F0F6FE43F63F0001F06CFEC7
:4001C000824B1B78012B08D10022804B1A7001F0E9FE41F61F4001F05FFE7D4B1B78012B29D100247A4B1C70684600F049FA684B009ADA60019A1A6101F0ACFA204601F005
:40020000ADFF01F0F7FF01F0F7FE01F017FF714B1B78012B0AD15B4B188800F5FA6080B202F002F801F010FF01F0E0FE0122574B1A7001F08FFE684B1B78012B0CD1002228
:40024000654B1A70524C258800F08EFB634B43F82500238801332380614B1B78012B1CD100225F4B1A7000F07FFB494D6860C400204602F0CDFD296902F01EFEE96802F0B1
:4002800013FD02F069FF6861231AAB601A12344842708370042101F053FB524B1B78012B40F0FE80504B1B78012B40F0F9800024364B1C70204601F07FFB01F073FE01F0B0
:4002C000E5FF494B1C7032490C80324B1C70284B1B8803F5FA63304A1380304B1C70274B18884200013293B20B83034401334B8301238B8322E0394B53F82240E4003B4EF6
:40030000204602F085FD224D296902F0D5FDE96802F0CAFC02F020FF2862201A306000F0ADFC334B186033681A120D4842708370042101F005FBAB8B0133AB83144BB3F9A7
:400340001C200E4B1B8801339A42D4DB0022104B9A8473E0510C0000B90B0000BD090000F4ABFF1FE081FF1F38ACFF1FEB81FF1F40ACFF1F4082FF1F56555555F0ABFF1FF1
:40038000EC81FF1F48ACFF1FE581FF1F50ACFF1F9481FF1FF981FF1FF681FF1FF481FF1F78ECFFFFD080FF1F0082FF1FD480FF1F0882FF1F0682FF1F0E82FF1F0482FF1F8D
:4003C0000C82FF1FE781FF1FE981FF1FE881FF1FE481FF1FE681FF1FF881FF1F4882FF1FFC81FF1FF081FF1FFA81FF1F44ACFF1F4482FF1F13448A4A52F82340E400894EED
:40040000204602F005FD884D296902F055FDE96802F04AFC02F0A0FE2862201A306000F04DFC824B186033681A12814842708370042101F085FAAB8C0133AB847A4BB3F9F7
:4004400024207C4B1B88591E8A42D3DB7A4B1B681A12774C6270A3700421204601F070FA022001F0ADFC714B1B681A126270A3700421204601F064FA704A714B1A600023E2
:40048000704A136041F288316F4A11606F4A13606F4A13806F4A13806F4A13806F4A13806F4B1B78012B7FF418AE6E4B1B78022B7FF413AE00246C4B1C70204601F07CFA0A
:4004C00001F070FD01F0E2FE664B1C7056490C80664B1C70664B1B8803F5FA63654A1380654B1C70534B18884200013293B20B83034401334B8301238B8327E0484A52F81D
:400500002340494D298B0B4452F823301C44A4005A4E204602F07CFC296902F0CDFCE96802F0C2FB02F018FE2862201A306000F0A5FB414B186033681A123D484270837078
:40054000042101F0FDF9AB8B0133AB83364BB3F91C30384A128801329342CFDB0022324B9A8429E0013313442D4951F823402E4D6B8B1A4451F822301C44A400294E2046D2
:4005800002F046FC296902F097FCE96802F08CFB02F0E2FD2862201A306000F08FFB234B186033681A12224842708370042101F0C7F9AB8C0133AB841B4BB3F924201D4B9D
:4005C0001B88591E8A42CDDB1B4B1B681A12184C6270A3700421204601F0B2F9022001F0EFFB124B1B681A126270A3700421204601F0A6F9114A124B1A600023114A1360BC
:4006000041F28831104A1160104A1360104A1380104A1380104A1380104A13805DE500BF4882FF1F4CACFF1F9481FF1F3CACFF1FF4ABFF1FF0ABFF1F4482FF1F78ECFFFF8E
:40064000D080FF1F0082FF1FD480FF1F0882FF1F0682FF1F0E82FF1F0482FF1F0C82FF1FCD80FF1FFA81FF1F50ACFF1FF981FF1F40ACFF1FF681FF1FF481FF1F44ACFF1FB8
:400680002DE9F04790B08246AB4C0BAD20686168A268E3680FC5228AA37C2A80AB7004F1140501AF34343E4628686968AA68EB680FC610353746A542F5D128683060AB8825
:4006C000B38001F095F8042001F0A4F8012001F045FD0022994B1A7056E0092B05DD002001F098F8052001F06BFB944B93F9003010AA134413F8140C01F048F8052001F02D
:400700005FFB01F003F88E4B186010F5803F01DC8C4A1A608A4B1B68B3F5803F03DB4FF6FF72874B1A60864B186800F0DDFF02F06FFB854B1860854902F0BEFB844902F099
:400740006FFC02F009FD7D4B93F90030092B0ADC10AA02EB430232F93C2C7E4901FB02027D4941F82320092B0BDD10AA02EB430232F93C2C4FF47A7101FB0200764A42F82F
:40078000230001336D4A13706C4B93F90030122BA3DD0022694B1A7032E010AB03EB450333F93C7C4FF47A7808FB07F002F030FB624C616802F078FA6060674B53F82560C8
:4007C000304602F025FBA16802F06EFAA06007FB07F3624800FB03F001F098FFD4E9042301F048FEC4E9040106FB07F008FB00F002F00EFBA16902F057FAA0610135257026
:400800004E4B93F90050082DC7DD0A221A7034E010AB03EB460333F93C5C4FF47A77474C07FB05F002F0F4FA0146606802F03AFA6060494B53F82680404602F0E9FAA1686E
:4008400002F032FAA06005FB05F3444800FB03F001F05CFFD4E9042301F00CFEC4E90401684200FB08F007FB00F002F0D1FAA16902F01AFAA06101362670304B93F900607A
:40088000122EC5DD1C46D3E904670022344B3046394601F0A1FF8046894665682946284602F00AFB01F044FF02460B464046494601F0DEFD02F0A2F98046E061D4F80890CA
:4008C000484601F035FF32463B4601F085FF06460F46A4692146284602F0EEFA01F028FF02460B463046394601F0C2FD06460F46404601F01DFF02460B463046394602F070
:4009000095F802F07BF906461649204602F0D4FA04464946284602F0CFFA0146204602F0C1F9414602F07CFBCAF80060CAF80400504610B0BDE8F08728320000C081FF1F95
:40094000A4ACFF1F0100FFFFA0ACFF1F002474490060EA4718FCFFFF54ACFF1F40420F00000033400000984108B5104B1B78012B1BD1052001F024FA00F0C8FE0C4B1860A5
:4009800010F5803F01DC0B4A1A60094B1B68B3F5803F03DB4FF6FF72054B1A60044B186800F0A2FE044B186008BD08BD50ACFF1FA8ACFF1F0100FFFFACACFF1F0122014B0B
:4009C0001A707047E081FF1F70B5044600F0A6FF764B18705A7801325A70762804D100225A7001229A7050E0662805D16F4B00225A700122DA7048E0632807D16B4B002285
:400A00005A7001206A4908701A713EE072280DD1664E0025757001F0C5FA41F61F4001F03BFA01233371624B1D702EE0702805D15E4B00225A7001225A7126E0682805D1E8
:400A40005A4B00225A7001229A711EE0732805D1564B00225A700122DA7116E0772809D10025524B5D70284601F036FC284600F0A3FF0AE0652808D100224C4B5A700120CA
:400A800001F02AFC012000F097FF484B5B785A1E032A00F28780DFE802F0021E242A434A1278A02A03D1013B4249CA547AE00D2A04D1013B01213F4AD15473E00E2A04D1E1
:400AC000013B02213B4AD1546CE00F2A6AD1013B3849CA5466E0013B344A1178354AD15460E0013B314A1178324AD1545AE02F4A1278C02A21D1013B2E49CA542B4A002382
:400B00005370137A0133DBB21372012B05D10A464978937843EA01232380244B1B7A022B40D1224A00231372224948788B7843EA002363800123537235E0D11CC9B20129C6
:400B400013D8013B1B49CA540022184B5A704A788B7843EA022323800A78022A01D15B4223800122114B9A721DE0FB2A1AD1013B1049CA540D4A0023537048788B7843EA8B
:400B80000023938133B90122084B9A730022084B5A7007E0012B05D10122054B5A700022024B9A7370BD204670BD00BFE281FF1FCC80FF1FB0ACFF1F204B1A78204B1B78CF
:400BC000012A08BF012B37D110B51E4B1B783BB91C4A1D4B1B8803F5FA63538001231370184C608801F020FB01232371637963B96388033B9BB26380144AB2F9002002F559
:400C0000FA62934201DA012262710E4B5B79012B11D10C4A538803339BB253800A4AB2F9002002F5FA62934205DB064B00225A719A7901329A7110BD704700BF50ACFF1FDD
:400C4000CC80FF1FF481FF1F40ACFF1F4082FF1F08B501F033F9064B1A78064B1B78012A08BF012B02D10122034B1A7008BD00BF50ACFF1FE681FF1FFC81FF1F0C4A136871
:400C80000C490B601060834208DA0A46CB8803EB4303094909885B1A938001E0044A1360044BDA880132DA80B3F90400704700BFD080FF1F0082FF1F40ACFF1F0C4A5368EC
:400CC0000C498B605060834208DD0A46CB89A3EB8303094909885B1A938101E0044A5360044BDA890132DA81B3F90C00704700BFD080FF1F0082FF1F4082FF1FFEE700BF54
:400D0000F0B40022174611E050F82760F3B226F0FF0608E001EB420511F812406D78A5550132013BDBB2002BF4D10137192FEBD9F0BC7047114B1B78DBB203F00701104A57
:400D400011701B09013213700223A2F23272137002F6E702137040220A490A7058310B7020201831087068310A70074A13703E3213704422054B1A70704700BFCF010049F7
:400D80006E580040285A0040045B00407658004008B50A46002102F03CFA08BD08B502F02DFA08BD38B56322334B1A801823334A13700024023214805021023211701925F3
:400DC00002321580023213705F21023211800232137004222A492B48FFF7E0FF02222A4B1A7008224FF040231A70032103F500731970264B1B78DBB225490B70254B1A8081
:400E000041F25122023B1A800CE0234B1B7803F0010343EA440404F003044FF4F07001F013FB013D0DB1032CEFD115B90320FFF765FF1A4B4FF480721A8007221A70002200
:400E400017490A704820023108701A700222033B1A7004220A331A70124A137843F00F031370013A137843F001031370013A137843F08003137038BD8040004082400040FD
:400E8000DC040048004100400043004008010049A146004022420040254200400440004006400040A24300400123834001281FD8DBB2104A127813421AD110B40D491343EB
:400EC0000B700D4B53F820201844047A137823431370037B19440A7922B908490A7842F010020A70034A13441A7901321A7110BC704700BF1082FF1F64320000205A004045
:400F00000123834001281FD8DBB2104A127813421AD010B40D4922EA03030B700C4B53F820201844047A137823EA04031370037BCA181379013BDBB2137123B9054A137886
:400F400023F01003137010BC704700BF1082FF1F64320000205A0040012808D8044B03EB800212691844017E13780B431370704764320000012809D8054B03EB800212697A
:400F80001844017E137823EA01031370704700BF6432000038B572B63B4A137843F00403137000240BE0394863001A19510001440A46098CD069FFF7EBFE0134E4B2072C92
:400FC000F1D900240CE03148A20011194B000344B3F85420196DD86CFFF7E0FE0134E4B2012CF0D92A494FF09040FFF789FE0A25284B1D7004212848FFF7CAFE274A137845
:4010000043F0020313701032137843F002031370234C237843F040032370A2F58632513A137843F01003137008221E491E48FFF7B5FE2A461D491E48FFF7B0FE08221D491C
:401040001D48FFF7ABFE08221C491D48FFF7A6FE08221C491C48FFF7A1FE1C4A137843F0080313701A4D61232B70FFF79BFE81232B700122174B1A70FFF75CFE0E2221465A
:401080001548FFF78BFE38BDE84600406432000068000048835800400076004003500140A0430040B004004802510040B8040048C0510040C404004812510040CC04004874
:4010C00022510040D404004832510040224300400048004004000840B043004008B502F061F803680C2B00D1FEE7FEE708B5104E104D16E029686B68AC68002204E051F834
:40110000040B43F8040B0432A242F8D1E868002203E0002143F8041B04328242F9D11035013E002EE6D102F043F8FEF7ABFFFEE701000000EC32000008B5114A114B1A60B8
:40114000114A136843F40073136000230AE0032B03D80E4A52F8231000E00D490D4A42F8231001332F2BF2D90B4B1A780B4B1A70084A0B4B1A60FFF70DFF00F041FD08BD5F
:401180000004FA050CED00E014ED00E000000000DD1000000080FF1FBC760040C080FF1F08ED00E0084A137843F0040313701032137843F00403137002F5A5521E32137855
:4011C00043F0800313707047A9430040044A137803F0FC0300F0030018431070704700BF09580040072809D8054B1A7802F08F021A701A780001C0B210431870704700BFCE
:401200000A580040032809D8054B1A7802F0F3021A701A788000C0B210431870704700BF0A58004010B50224084B1C700C2201331A70012201331A700420FFF7D3FF20464D
:40124000FFF7E0FF2046FFF7C1FF10BD0858004008B5054B1B7823B90122034B1A70FFF7E1FFFFF79FFF08BD1582FF1F10B59DF80840012C51D1013809282ED8DFE800F09D
:40128000052D2D052D2D0F192D230F2B03D92548007840B222E02448007840B21EE00F2B03D92248007840B218E02148007840B214E00F2B03D91F48007840B20EE01E4851
:4012C000007840B20AE00F2B03D91C48007840B204E01B48007840B200E0002001EB401101FB02F1C90B8AB20D2B0BD8C3F10E0289B211418AB2611E124800EB81010133A7
:401300008B7005E0631E0F4901EB83030F219970013C0C4B23F8242010BD002000F04EFD10BD00BF180100491C010049190100491D0100491A0100491E0100491B010049DF
:401340001F0100491882FF1FF8B5074601F084F806460D4D2B7843F003032B700B4C237843F0030323700A4B1F70032000F03EFD2B7803F0FC032B70237803F0FC03237088
:40138000304601F06DF8F8BDF8460040F94600409258004000222F4B1A71012859D170B538222D4B1A70042202331A70072201331A70002401331C7001331C703F22013385
:4013C0001A7002331C7001331C7001331C7001250A331D70502203F527631A70132201331A702B2201331A7001331C70442003331870482201331A70022201331A70023395
:401400001C7001331C700A2601331E70432201331A70FFF799FF5822104B1A7001331C7005200533187001331D7001331C7001331E704FF47A520A4B1A60294600F0E0FA5F
:401440002946BA2000F062FB06491D2000F0D8FC70BD70471882FF1F004E004094580040B4ACFF1F35170000F0B583B0284D01272F70284E00247471102000F0AFFA1020DA
:4014800000F032FB07211D2000F0CEFC0422224B1A7001331C7007331C70204A137843F0180313701E4B1C7003F2F5231C7001331C700A22A3F209331A7001331C700233BD
:4014C0001C705B2205331A705E2201331A7004331C701422A3F68C231A70009710234FF4004249F25B110520FFF7C0FE2B78013B06EB83039A780B4B1A702B78013B36F8F4
:401500002320094B1A802878FFF744FF03B0F0BDD880FF1F1882FF1F96580040075B0040935800400E4E00400C4E004070B500F093FF06462A4B1B782A4B1A7842F00102AB
:401540001A701A7842F010021A7010331A7842F001021A701A7842F010021A70224D2B7843F002032B70214C237843F0020323701F4A137843F003031370032000F036FCE0
:401580002B7803F0FD032B70237803F0FD032370184A137843F0060313707A22164B1A70164A137843F0010313701032137843F0010313700F3A137843F0020313701032A9
:4015C000137843F0020313704FF000530C4A1360A2F5C0721360304600F042FF70BD00BFD880FF1FAA430040F8460040F9460040915800407758004082580040A143004065
:4016000080E200E008B5084B9B794BB9064BDB7913F0FF0F01D1FFF727FF0122024B9A71FFF784FF08BD00BF1882FF1F024A137843F0010313707047004E0040024A1378BF
:4016400003F0FE0313707047004E0040094B1B7913F0FF0F03D0074B5B79DBB203E0064B1B7803F00103012B01D00028EED01846704700BF1882FF1F014E0040154B1B7880
:4016800003F00303012B07D8134B1888023B1B889BB243EA004013E0022B0AD10E4B1888023B1B7843EA00430C4A107843EA002006E00B4B188883B2074A108843EA0040C8
:4016C000084B1B7913F0FF0F02D00022054B5A71704700BF144E0040124E0040114E0040104E00401882FF1F064B9B68C01A4FF47A7303FB00F0044B1B6890FBF3F000B2F8
:40170000704700BF1882FF1FB4ACFF1F10B5084A137843F004031370FFF788FF0020FFF795FFFFF7ABFF0446FFF788FF204610BD014E0040704700BF054A137843F00403C4
:4017400013701032137843F004031370704700BFA8430040054A137803F0FB0313701032137803F0FB031370704700BFA8430040054B1A7802F0FD021A701A7800F00200AA
:4017800010431870704700BF28580040014B1870704700BF825B0040094B1B7803F00C035B08084A127812F0040F00D0013303F1924393F82831DBB2034A1370704700BFF0
:4017C00028580040295800400A46004008B51022064B1A70013300221A701A78D2B21A700220FFF7C5FFFFF7D7FF08BD2858004008B5074B1B7823B9FFF7E8FF0122044B94
:401800001A70FFF799FF9020FFF7C0FF08BD00BF2482FF1F08B5064B1A7802F0FB021A701A7800F0040010431870FFF7B5FF08BD29580040084A137843F060031370A2F5AC
:40184000A652133A137843F0020313701032137843F002031370704777580040054B1A7802F0FC021A701A7800F0030010431870704700BF5A58004008B50120FFF7EEFFAA
:4018800008BD00BF08B5054B1B7823B90122034B1A70FFF7F1FFFFF7CDFF08BD2582FF1F7222084B1A702022033B1A700622A3F25F131A70472210331A7000224F331A7063
:4018C000704700BF8B65004010B500F0C5FD04460A4A137843F020031370033A137843F010031370A2F58072137843F01003137000F078F9204600F0B3FD10BD9B650040E7
:4019000008B5054B1B7823B9FFF7CAFF0122024B1A70FFF7D9FF08BD2682FF1F014B1878704700BF48650040034B1B7813F0040FFAD1024B18707047686400404864004094
:40194000084B1B7833B97047305DFFF7EDFF0134E4B203E070B50D4606460024AC42F3D370BD00BF2682FF1F014B1B689864704708ED00E04001C0B2014B1870704700BF1F
:4019800002E400E00422014B1A60704700E100E00422014B1A60704780E100E010B50446FFF7F6FF2046FFF7DFFF0720FFF7E2FFFFF7E8FF10BD00BF044A137803F0FD03B2
:4019C000400000F0020018431070704720510040014B188880B2704784400040034B1A7800F0F80010431870704700BF86400040024B187800F00700704700BF864000402A
:401A000070B504460D46FFF7F3FF0646FFF7E0FFA04257D02C4B1B7803F00203DAB296B900B184B938B9294B1C80294A137803F0BF03137070BD264A137843F040031370AF
:401A4000224B1C8070BD22B3002322490B7002260F310E7004310B700C390B7803F07F030B701B4B1B7813F0080F00D08CB91A4B18800721013B1970164B1B7813F0010FEB
:401A8000FAD111490B7803F0FD030B700021114B19700D4B1B7813F0020F0DD00E4B1C800DB1032200E001220A4B1A70094B1B7813F0010FFAD170BD044B1C8002490B78C9
:401AC00013430B7070BD00BFA243004084400040864000400140004002400040014B188880B2704700410040034B1A7800F0F80010431870704700BF02410040024B187828
:401B000000F00700704700BF0241004070B505460E46FFF7F3FF0446FFF7E0FFA84256D02B4B1B7803F0010294B900B185B938B9284B1D80284A137803F0BF03137070BD3C
:401B4000254A137843F040031370224B1D8070BD22B3002321490B70012413310C7004390B7008390B7803F07F030B701A4B1B7813F0080F00D08DB9194B18800721013B85
:401B80001970164B1B7813F0010FFAD110490B7803F0FE030B700021104B19700C4B1B7813F0010F0DD00E4B1D800EB1032200E001220A4B1A70094B1B7813F0010FFAD11F
:401BC00070BD044B1D8002490B7813430B7070BDA143004000410040024100400140004002400040054A137843F0040313701032137843F004031370704700BFA243004019
:401C00000B4A7F2313708021517007E0DA0002F1804202F5F042013BDBB21370002BF5D1DB0003F1804303F5F04300221A707047DC80FF1F172815D831B103010A495A5C37
:401C400042F020025A5405E0030107495A5C02F0DF025A540001044A835C43F00103835400207047012070471070004017280BD80001064BC25C02F0FE02C254C25C02F09D
:401C8000DF02C25400207047012070471070004017280BD80001064A835C03F0F103490001F00E011943815400207047012070471070004041F6FF73994201D14FF40051B2
:401CC00041F6FF739A4201D14FF40052172808D8C00000F1804000F5EC408180C280002070470120704700BF172805D8034B03EB001041720020704701207047107000400C
:401D000017281BD810B4C00000F1804404F5EC44D201D2B201F07F01114321709DF804201201D2B203F00F03134363709DF8083003F00F03A3700020E07001E001207047D6
:401D400010BC704710B500F087FB0A4B5B78182B0BD9084A1478013B5370E30003F1804303F5F0431B78137000E0FF2400F078FB204610BDDC80FF1F10F0800F0CD111F41E
:401D8000704F0BD1C00000F1804000F5F04001808270C37000207047012070470120704710F0800F08D1C00000F1804000F5F0408180C280002070470120704701BE70475F
:401DC00010B5044605E0084B186800F03DFBA4F50044B4F5004FF6D8034B586800FB04F000F032FB10BD00BFE480FF1F08B5034B1B7A00FB03F000F027FB08BDE480FF1F42
:401E000070B504460E46074B1D681F2802D90020FFF7D4FF04F01F04103455F8240045F8246070BD08ED00E038B504460D46072902D90020FFF7C2FF1F2C02D90020FFF7C6
:401E4000BDFF04F01F0000F1604000F564406D01EDB2057038BD00BF024A137843F080031370704775650040024A137803F07F031370704775650040014B1880704700BF58
:401E8000086A0040024B1B78024B188880B2704714650040A86A0040014B1880704700BF886A0040014B1880704700BF486A0040014B1870704700BF85650040014B187887
:401EC000704700BF65650040014B1878704700BF75650040014B188880B27047A86A004008B501E0FFF7F6FFFFF7E8FF10F0100FF8D108BD10B5154A137803F0C00343F024
:401F0000120313701F32137843F001031370104C237843F00103237041F61F40FFF7ACFF41F61F40FFF7B8FF0020FFF7BBFF0020FFF7BEFF00F090FA237843F010032370A7
:401F400000F08EFAFFF7CCFF10BD00BF756500409565004008B5054B1B7823B9FFF7CAFF0122024B1A70FFF777FF08BD2882FF1F014B188880B27047886A004010B5FFF758
:401F8000F7FF064CA080FFF77DFF6080044B1B78A371FFF799FFE07110BD00BF2C82FF1F8565004008B5084B1B7813F0800F03D00122064B1A7002E00022044B1A70FFF737
:401FC00053FFFFF7DBFF08BD756500402C82FF1F014B1B685864704708ED00E04001C0B2014B1870704700BF01E400E00222014B1A60704700E100E00222014B1A60704738
:4020000080E100E010B50446FFF7F6FF2046FFF7DFFF0720FFF7E2FFFFF7E8FF10BD00BF014B1B681864704708ED00E04001C0B2014B1870704700BF00E400E00122014BBD
:402040001A60704700E100E00122014B1A60704780E100E010B50446FFF7F6FF2046FFF7DFFF0720FFF7E2FFFFF7E8FF10BD00BF054A137843F0010313701032137843F05E
:4020800001031370704700BFA8430040054B1A7802F0FD021A701A7800F0020010431870704700BF20580040014B1870704700BF805B0040064B1B78C3F3810303F19243C2
:4020C000063393F82031DBB2024A1370704700BF205800400846004008B5064B1A7802F0F3021A701A7800F00C0010431870FFF7E1FF08BD2058004010B50024054B1C7021
:4021000001331C700420FFF7E7FF2046FFF7BEFF10BD00BF2058004008B5074B1B7823B9FFF7EAFF0122044B1A70FFF7A1FF7D20FFF7BAFF08BD00BF3482FF1F10B5002406
:4021400004E02046FEF7DCFE0134E4B2012CF8D9FF22014B1A7010BDF480FF1F10B50446FFF7ECFF2046FEF79FFE014B1C7010BDF480FF1F70B54FF4804341F6FF72012113
:40218000084600F0B5F80C4E3070FFF7DBFD02460A4C254605F8040B01231021FFF7ECFD45F68332A9B22078FFF7FAFD21783078FFF79AFD70BD00BF3582FF1FF880FF1F2E
:4021C00008B500F0FFF8034B1B78FF2B01D1FFF7D1FF08BDF880FF1F08B50121044B1878FFF728FD00F014F900F0A0F808BD00BF3582FF1F08B5054B5B7823B9FFF7E0FFF5
:402200000122024B5A70FFF7E7FF08BD3582FF1F08B500F00BF9034B1878FFF727FD00F093F808BD3582FF1F38B500F00F05C0F30714B0F57F6F02D90020FFF7BFFDFF2C06
:4022400008D0002318E00E4A1A44FF2111710133DBB200E000230F2BF5D938BDC5F11002934203DA064A1A44147103E0044A1A44611C11710133DBB20F2BEFD938BD00BFA0
:40228000F880FF1F08B500F0B3F808BD08B5084B1B7813F0080F03D00122064B1A7002E00022044B1A70FFF7B3FFFFF7EBFF08BDA84300403882FF1F10B5002404E020467D
:4022C000FEF758FE0134E4B2012CF8D9FF22014B1A7010BD0C81FF1F10B50446FFF7ECFF2046FEF739FE014B1C7010BD0C81FF1FF0B583B016461F460B4D00242C70019443
:40230000009423460A4601462046FFF7F9FC3A4631462878FFF7CEFC02212878FFF7B8FC287803B0F0BD00BF0D81FF1F054A137843F0080313701032137843F00803137060
:40234000704700BFA8430040054A137803F0F70313701032137803F0F7031370704700BFA8430040054B1A7802F0FD021A701A7800F0020010431870704700BF2C5800409E
:40238000064B1B78C3F3810303F19243063393F83831DBB2024A1370704700BF2C5800400B46004008B5064B1A7802F0F3021A701A7800F00C0010431870FFF7E1FF08BDCD
:4023C0002C58004008B50023084A13700132137002F27222137843F0080313700420FFF7E1FF0220FFF7BEFF08BD00BF2C580040044B1B7813F0200F03D1034B1A78034BAD
:402400005A7070472D580040835B00403C82FF1F054A137843F0080313701032137843F008031370704700BFA2430040054A137803F0F70313701032137803F0F703137011
:40244000704700BFA24300400230800803D000BF01380046FCD17047EFF3108072B6704780F31088704700BF81F0004102E000BF83F0004330B54FEA41044FEA430594EA35
:40248000050F08BF90EA020F1FBF54EA000C55EA020C7FEA645C7FEA655C00F0E2804FEA5454D4EB5555B8BF6D420CDD2C4480EA020281EA030382EA000083EA010180EAAF
:4024C000020281EA0303362D88BF30BD11F0004F4FEA01314FF4801C4CEA113102D0404261EB410113F0004F4FEA03334CEA133302D0524263EB430394EA050F00F0A780FC
:40250000A4F10104D5F1200E0DDB02FA0EFC22FA05F2801841F1000103FA0EF2801843FA05F359410EE0A5F120050EF1200E012A03FA0EFC28BF4CF0020C43FA05F3C01897
:4025400051EBE37101F0004507D54FF0000EDCF1000C7EEB00006EEB0101B1F5801F1BD3B1F5001F0CD349085FEA30004FEA3C0C04F101044FEA445212F5800F80F09A80C4
:40258000BCF1004F08BF5FEA500C50F1000041EB045141EA050130BD5FEA4C0C404141EB010111F4801FA4F10104E9D191F0000F04BF01460020B1FA81F308BF2033A3F104
:4025C0000B03B3F120020CDA0C3208DD02F1140CC2F10C0201FA0CF021FA02F10CE002F11402D8BFC2F1200C01FA02F120FA0CFCDCBF41EA0C019040E41AA2BF01EB045167
:40260000294330BD6FEA04041F3C1CDA0C340EDC04F11404C4F1200220FA04F001FA02F340EA030021FA04F345EA030130BDC4F10C04C4F1200220FA02F001FA04F340EA60
:402640000300294630BD21FA04F0294630BD94F0000F83F4801306BF81F480110134013D4EE77FEA645C18BF7FEA655C29D094EA050F08BF90EA020F05D054EA000C04BF97
:402680001946104630BD91EA030F1EBF0021002030BD5FEA545C05D14000494128BF41F0004130BD14F580043CBF01F5801130BD01F0004545F0FE4141F470014FF0000076
:4026C00030BD7FEA645C1ABF194610467FEA655C1CBF0B46024650EA013406BF52EA033591EA030F41F4002130BD00BF90F0000F04BF0021704730B54FF4806404F1320400
:402700004FF000054FF0000150E700BF90F0000F04BF0021704730B54FF4806404F1320410F0004548BF40424FF000013EE700BF42004FEAE2014FEA31014FEA02701FBF7A
:4027400012F07F4393F07F4F81F06051704792F0000F14BF93F07F4F704730B54FF4607401F0004521F0004120E700BF50EA010208BF704730B54FF000050AE050EA0102AA
:4027800008BF704730B511F0004502D5404261EB41014FF4806404F132045FEA915C3FF4DCAE4FF003025FEADC0C18BF03325FEADC0C18BF033202EBDC02C2F1200300FAEB
:4027C00003FC20FA02F001FA03FE40EA0E0021FA02F11444C1E600BF70B54FF0FF0C4CF4E06C1CEA11541DBF1CEA135594EA0C0F95EA0C0F00F0DEF82C4481EA030621EA36
:402800004C5123EA4C5350EA013518BF52EA033541F4801143F4801338D0A0FB02CE4FF00005E1FB02E506F00042E0FB03E54FF00006E1FB03569CF0000F18BF4EF0010E56
:40284000A4F1FF04B6F5007F64F5407404D25FEA4E0E6D4146EB060642EAC62141EA55514FEAC52040EA5E504FEACE2EB4F1FD0C88BFBCF5E06F1ED8BEF1004F08BF5FEA1B
:40288000500E50F1000041EB045170BD06F0004646EA010140EA020081EA0301B4EB5C04C2BFD4EB0C0541EA045170BD41F480114FF0000E013C00F3AB8014F1360FDEBF70
:4028C000002001F0004170BDC4F10004203C35DA0C341BDC04F11404C4F1200500FA05F320FA04F001FA05F240EA020001F0004221F0004110EBD37021FA04F642EB0601ED
:402900005EEA430E08BF20EAD37070BDC4F10C04C4F1200500FA04F320FA05F001FA04F240EA020001F0004110EBD37041F100015EEA430E08BF20EAD37070BDC4F12005AA
:4029400000FA05F24EEA020E20FA04F301FA05F243EA020321FA04F001F0004121FA04F220EA020000EBD3705EEA430E08BF20EAD37070BD94F0000F0FD101F00046400099
:4029800041EB010111F4801F08BF013CF7D041EA060195F0000F18BF704703F00046520043EB030313F4801F08BF013DF7D043EA0603704794EA0C0F0CEA135518BF95EABB
:4029C0000C0F0CD050EA410618BF52EA4306D1D181EA030101F000414FF0000070BD50EA410606BF1046194652EA430619D094EA0C0F02D150EA013613D195EA0C0F05D1BA
:402A000052EA03361CBF104619460AD181EA030101F0004141F0FE4141F470014FF0000070BD41F0FE4141F4780170BD70B54FF0FF0C4CF4E06C1CEA11541DBF1CEA135598
:402A400094EA0C0F95EA0C0F00F0A7F8A4EB050481EA030E52EA03354FEA013100F088804FEA03334FF0805545EA131343EA12634FEA022245EA111545EA10654FEA00267A
:402A80000EF000419D4208BF964244F1FD0404F5407402D25B084FEA3202B61A65EB03055B084FEA32024FF480104FF4002CB6EB020E75EB030E22BFB61A754640EA0C00D4
:402AC0005B084FEA3202B6EB020E75EB030E22BFB61A754640EA5C005B084FEA3202B6EB020E75EB030E22BFB61A754640EA9C005B084FEA3202B6EB020E75EB030E22BFFB
:402B0000B61A754640EADC0055EA060E18D04FEA051545EA16754FEA06164FEAC30343EA52734FEAC2025FEA1C1CC0D111F4801F0BD141EA00014FF000004FF0004CB6E754
:402B400011F4801F04BF01430020B4F1FD0C88BFBCF5E06F3FF6AFAEB5EB030C04BFB6EB020C5FEA500C50F1000041EB045170BD0EF0004E4EEA113114EB5C04C2BFD4EBE9
:402B80000C0541EA045170BD41F480114FF0000E013C90E645EA060E8DE60CEA135594EA0C0F08BF95EA0C0F3FF43BAF94EA0C0F0AD150EA01347FF434AF95EA0C0F7FF420
:402BC00025AF104619462CE795EA0C0F06D152EA03353FF4FDAE1046194622E750EA410618BF52EA43067FF4C5AE50EA41047FF40DAF52EA43057FF4EBAE12E74FEA410242
:402C0000B2F1E04324BFB3F5001CDCF1FE5C0DD901F0004C4FEAC0024CEA5070B2F1004F40EB830008BF20F00100704711F0804F21D113F13872BCBF01F00040704741F4B5
:402C400080114FEA5252C2F11802C2F1200C10FA0CF320FA02F018BF40F001004FEAC1234FEAD32303FA0CFC40EA0C0023FA02F34FEA4303CCE77FEA625307D150EA0133EE
:402C80001EBF4FF0FE4040F44000704701F0004040F0FE4040F40000704700BF80F0004002E000BF81F0004142001FBF5FEA410392EA030F7FEA226C7FEA236C6AD04FEAA6
:402CC0001262D2EB1363C1BFD218414048404140B8BF5B42192B88BF704710F0004F40F4000020F07F4018BF404211F0004F41F4000121F07F4118BF494292EA030F3FD0E2
:402D0000A2F1010241FA03FC10EB0C00C3F1200301FA03F100F0004302D5494260EB4000B0F5000F13D3B0F1807F06D340084FEA310102F10102FE2A51D2B1F1004F40EBB3
:402D4000C25008BF20F0010040EA03007047490040EB000010F4000FA2F10102EDD1B0FA80FCACF1080CB2EB0C0200FA0CF0AABF00EBC25052421843BCBFD0401843704740
:402D800092F0000F81F4000106BF80F400000132013BB5E74FEA41037FEA226C18BF7FEA236C21D092EA030F04D092F0000F08BF0846704790EA010F1CBF0020704712F097
:402DC0007F4F04D1400028BF40F00040704712F100723CBF00F50000704700F0004343F0FE4040F4000070477FEA226216BF08467FEA23630146420206BF5FEA412390EAC1
:402E0000010F40F4800070474FF0000304E000BF10F0004348BF40425FEA000C08BF704743F0964301464FF000001CE050EA010208BF70474FF000030AE000BF50EA010222
:402E400008BF704711F0004302D5404261EB41015FEA010C02BF84460146002043F0B64308BFA3F18053A3F50003BCFA8CF2083AA3EBC25310DB01FA02FC634400FA02FCD0
:402E8000C2F12002BCF1004F20FA02F243EB020008BF20F00100704702F1200201FA02FCC2F1200250EA4C0021FA02F243EB020008BF20EADC7070474FF0FF0C1CEAD05286
:402EC0001EBF1CEAD15392EA0C0F93EA0C0F6FD01A4480EA010C400218BF5FEA41211ED04FF0006343EA501043EA5111A0FB01310CF00040B1F5000F3EBF490041EAD371A5
:402F00005B0040EA010062F17F02FD2A1DD8B3F1004F40EBC25008BF20F00100704790F0000F0CF0004C08BF49024CEA502040EA51207F3AC2BFD2F1FF0340EAC250704740
:402F400040F400004FF00003013A5DDC12F1190FDCBF00F000407047C2F10002410021FA02F1C2F1200200FA02FC5FEA310040F1000053EA4C0308BF20EADC70704792F05C
:402F8000000F00F0004C02BF400010F4000F013AF9D040EA0C0093F0000F01F0004C02BF490011F4000F013BF9D041EA0C018FE70CEAD15392EA0C0F18BF93EA0C0F0AD0DE
:402FC00030F0004C18BF31F0004CD8D180EA010000F00040704790F0000F17BF90F0004F084691F0000F91F0004F14D092EA0C0F01D142020FD193EA0C0F03D14B0218BF43
:40300000084608D180EA010000F0004040F0FE4040F40000704740F0FE4040F4400070474FF0FF0C1CEAD0521EBF1CEAD15392EA0C0F93EA0C0F69D0A2EB030280EA010CF2
:4030400049024FEA402037D04FF0805343EA111143EA10130CF000408B4238BF5B0042F17D024FF4000C8B4224BF5B1A40EA0C00B3EB510F24BFA3EB510340EA5C00B3EB16
:40308000910F24BFA3EB910340EA9C00B3EBD10F24BFA3EBD10340EADC001B0118BF5FEA1C1CE0D1FD2A3FF650AF8B4240EBC25008BF20F0010070470CF0004C4CEA5020D5
:4030C0007F32C2BFD2F1FF0340EAC250704740F400004FF00003013A37E792F0000F00F0004C02BF400010F4000F013AF9D040EA0C0093F0000F01F0004C02BF490011F41E
:40310000000F013BF9D041EA0C0195E70CEAD15392EA0C0F08D142027FF47DAF93EA0C0F7FF470AF084676E793EA0C0F04D14B023FF44CAF08466EE730F0004C18BF31F096
:40314000004CCAD130F000427FF45CAF31F000437FF43CAF5FE700BF4FEA4002B2F1FE4F0FD34FF09E03B3EB12620DD94FEA002343F0004310F0004F23FA02F018BF404213
:4031800070474FF00000704712F1610F01D1420205D110F0004008BF6FF0004070474FF000007047014B1868704700BF7081FF1F0E4B70B51E460E4C0025E41AA410A54265
:4031C00004D056F8253098470135F8E700F07CF8084B094C1E46E41AA4100025A54204D056F8253098470135F8E770BDD4320000D4320000D4320000DC32000010B5431E58
:403200000A44914204D011F8014B03F8014FF8E710BD03460244934202D003F8011BFAE770470000000000004B433B332B231A120A000A121A232B333B434B000900080057
:403240000700060005000400030002000100000001000200030004000500060007000800090000000D510040945A00400110000000000000435B0040435B00400102000069
:40328000405100403000F0510040100000000140001000140140000480180140800300400140000A004C0140000200500140200060520040280400480600001801403004B2
:4032C0000048800043000000F8B500BFF8BC08BC9E4670474D00000039110000F8B500BFF8BC08BC9E4670472900000000330000C880FF1FB0000000402B00000000000051
:40330000000000000101000078ECFFFF88130000010000007F800000010000000000E02EC05D00001800000000366E01FF000000FF0000007D7D7D7D7D7D7D7D7D7D7D7DCB
:403340007D7D7D7DFFFF00000000000000000000000000000000000000000000000000000000000000000000C4320000000000000000000000000000000000000000000065
:40338000000000000000000000000000000000000000000000000000000000000000000000000000000000001081FF1F00000000000000000000000000000000000000005E
:4033C00000000000000000000000000000000000000000000000000000000000000000000000000000000000000000000000000000000000000000000000000000000000CD
:40340000000000000000000000000000000000000000000000000000000000000000000000000000000000000000000000000000000000000000000000000000000000008C
:40344000000000000000000000000000000000000000000000000000000000000000000000000000000000000000000000000000000000000000000000000000000000004C
:40348000000000000000000000000000000000000000000000000000000000000000000000000000000000000000000000000000000000000000000000000000000000000C
:020000040003F7
:0200000480007A
:40000000015A004001640040036500405D080140330901404114014023150140011701400618014037190140311A0140381B01400640014003410140034201400343014024
:40004000024401400145014003460140054701400748014009490140024C01400C4D014005500140025101409F01880F850D88388B7204130501060C0E20100312141301B5
:4000800015011E08200A22142502261528132A043010340F3620370339883A203E013F0440234106460C47EB483449FF4AFF4BFF4EF04F44500C5401580459045A045B04AC
:4000C0005C225D225F0166C06A406B02805C820284708501860C87168A038C1094149501970E9B039F1CA009A11CA210A303A620A86CAA11AF08B21FB31AB660B70FB8803C
:40010000BB88BE40C001C540C9FFCA07CBFFCC40CD20CEF0CF05D008D804D904DA04DC22DD02DF01E040E1A8E240E320009603120404058009040C800F8010A0128813080B
:40014000172A181119081C041E412002220823222508268029012B022C203020328835013608370238043C044001471848604E085504564157405C025E485F108108C0AFAB
:40018000C294C47ECA49CCCECE42D068D220D6F0E0014030410249FF4AFF4BFF4DA04F0450185A045F01604062C06440654066C068C06AC06CC06EC0830A87058A028B0C0C
:4001C0009C04A602A804AD03AE01B004B201B30CB402B50CB703B802BE10C030C102C5D0C620C710C83AC9FFCAFFCBFFCDAFCE0FCF04D018D280D405D804D904DA04DB04B6
:40020000DF01E040E2C0E440E540E6C0E8C0EAC0ECC0EEC004100F02162817401C101D081E081F02264027282F023C103E083F024010412045284F015520562857015E88D7
:400240005F01774083088720C040C280C4E0CA10CEE0D066D6D0E404E820E2088201A201B401BE10D804DF010002042806400C400E66108014021601170519201C021D0C1F
:400280001E081F01241527402D802F28361037143C113D103E443F024440450847504C804E0456405A0C5D0165206782874089018A08920199089A019C029D80A604B2400F
:4002C000B310C078C2F0C4B8CA70CC60CEF0D0F0D220D680D8B0040136013E4058045F01800F81108210840C8508881389E78A0C8B188C018D1C8FE1913C93C2961397E3AD
:40030000981F99189C039DC0A008A304A404A5FFA802A980AC0CAD44AE13B01CB138B20FB3C0B51FBA2ABB20D602D712D804D904DB04DC22DD20DF01010804100581071017
:400340000C400D080E040F021591170818021C101D011E64260927042D902E0534403504360237103C103D013E4A5C046C146F29760A771881408202830489808C01900449
:400380009110920194289644990C9D809F05A108A301A619A728C0F4C2E0C4F0CAF0CCF0CEF0D640E404E8203002331037803F80CC70CE209F90A402A7409F90A402A74061
:4003C0009F90A402A7407D20DE01A5104410A510D001321081109C10A510CC08210184029F90A402A740C840E2101B60833087809F90A740B101C640E260E42096209C1025
:4004000011017C40821089018C409620B010C408DE04E002E601E80400040C0410051A011C04003A1002000080800000400000000010026404800000044200190080000064
:40044000000001000180000001800000000002000400000000730100007300000821001A020C04030880017080000000000011112306040001E00C0006FFFFFF62A0F04149
:400480000C000000180004000404040422220001000000000000400200103010001010120000000000000000000000000000000000000000000001008000408080008000BA
:4004C00000000000000B0B000000000000020200000000000000000000005200BB0018010000000000000000000000000000000000000000000000000000000000000000BC
:4005000000000000000000000000000000000000000000000000000000000000000000000000000000000000000000000000000000000000000000000000000000000000BB
:40054000000000000000000000000000000000000000000000000000000000000000000000000000000000000000000000000000000000000000000000000000000000007B
:40058000000000000000000000000000000000000000000000000000000000000000000000000000000000000000000000000000000000000000000000000000000000003B
:4005C00000000000000000000000000000000000000000000000000000000000000000000000000000000000000000000000000000000000000000000000000000000000FB
:0200000490006A
:0400000000004005B7
:0200000490105A
:04000000BC90ACAF55
:0200000490303A
:02000000C0241A
:0200000490402A
:4000000000000000000000000000000000000000000000000000000000000000000000000000000000000000000000000000000000000000000000000000000000000000C0
:400040000000000000000000000000000000000000000000000000000000000000000000000000000000000000000000000000000000000000000000000000000000000080
:400080000000000000000000000000000000000000000000000000000000000000000000000000000000000000000000000000000000000000000000000000000000000040
:4000C0000000000000000000000000000000000000000000000000000000000000000000000000000000000000000000000000000000000000000000000000000000000000
:0200000490501A
:0C00000000012E16106900012E2AD08D80
:00000001FF